:10000000473084000330DE001530DF00112080000F
:10001000840A04084A3A03191528DF0A0319DE0A7C
:1000200006285E088A005F0882004A3084004B3050
:100030001E208316FF239000830126286400800180
:10004000840A04060319003404061F28FF238316BC
:10005000900003100030031801308E000730831227
:100060009900031000300318013085003D308316DD
:10007000850083128B158316161495010314950DB4
:100080009514811303108312003003180130870088
:10009000083083168700182383120B106300053085
:1000A000D7000030D800DF238312051C58285928B8
:1000B0005A28A928FA30D7000030D800DF2383124D
:1000C000051C632864286628B622A928E830D500D4
:1000D0000330D6009E228312051C6F2870287628D4
:1000E00002308506A92201306D23A92803100030B3
:1000F00003180130CB00E830D7000330D800DF23ED
:100100009A28CB010314CB0D0130CC004C08CA0750
:1001100003304A02031C8D288E28932803100030D8
:1001200003180130CA00D422E8308312D70003300C
:10013000D800DF238312051C9E289F288128CB0826
:10014000031DA328A9289522C522A92200306D23CA
:06015000B6224C28002835
:10052A004A08013E0923D1000708303951048700DF
:10053A000800071287125508D701D7075608D801AD
:10054A00D807DF23D422080083124A08CD000030DE
:10055A00AF230030831285180130CD000130AF235C
:10056A0008008312051183160511C8308312D700BB
:10057A000030D800DF2383160515831205150800FD
:10058A0083124A08043E0923CD004D0C0318CE2AD3
:10059A00D12A83128514D32A831285100800831264
:1005AA004A08473E840083130008D700043003102A
:1005BA00D70DFF3E031DDC2A0708073957048700B9
:1005CA0008008312D100EA2AEA2A83169C18EE2A26
:1005DA00EF2AE92A83125108831383169B007F307E
:1005EA008312D20083168312520883169C051C14A8
:1005FA001A08FF2A0800DE00DE1F082B83135E1884
:10060A008317000808000408DE0003308A005E0829
:10061A0082070034063402340134003401340134D0
:10062A0001340334023400308312CE000030CF008C
:10063A001E2B4E088313023EE6228312CD000130A0
:10064A004D02031C292B2A2B382B04304D02031888
:10065A002F2B302B382B4D088313D0004E08473EE2
:10066A008400500880000130CE070318CF0A0030FA
:10067A00CF074F08803AD00080305002031D472B25
:10068A0003304E02031C4A2B4B2B1E2B0030E62252
:10069A008312D0005008CA0003304A02031C562BAA
:1006AA00572B5C2B0310003003180130CA00952227
:1006BA000130E6228312D0005018642B672B831274
:1006CA008514692B83128510D42201306D2308000A
:1006DA008312D100D108031D732B742B792BC830D8
:1006EA00D5000030D6009E22831285187D2B7E2BE2
:1006FA008A2BC830D7000030D800DF23C8308312D5
:10070A00D5000030D6009E22AE2B0030D200003039
:10071A00D3008F2B4B30D7000030D800DF234B306B
:10072A008312D5000030D6009E2283120130D207F0
:10073A000318D30A0030D3075308803AD400803014
:10074A005402031DAA2B03305202031CAD2BAE2BFD
:10075A008F2B0800CE00B22BB22B83169C18B62B17
:10076A00B72BB12B83124E08831383169B00831277
:10077A004D0883169A007F308312CF0083168312A6
:10078A004F0883169C05831203108B1FCD2BCE2B8B
:10079A00CF2B03148B1383161C1555309D00AA30DA
:1007AA009D009C141C118312031CDC2BDD2BDE2BF9
:1007BA008B170800E72BF930D9006400D90BE22B1C
:1007CA00E62B64008312FF30D7070318D80AFF30DC
:1007DA00D807FF305806031DF42BFF305706031DB8
:0807EA00F72BF82BE02B0800AF
:084000000200070000000200AD
:02400E00C43FAD
:1042000000000000010003000200000000000000A8
:104210005F005F0073006500620021005F005F00C7
:00000001FF
